{
  "_format": "hh-sol-artifact-1",
  "contractName": "FstNFT",
  "sourceName": "contracts/Nft.sol",
  "abi": [
    {
      "inputs": [
        {
          "internalType": "string",
          "name": "name",
          "type": "string"
        },
        {
          "internalType": "string",
          "name": "symbol",
          "type": "string"
        },
        {
          "internalType": "string",
          "name": "baseURI",
          "type": "string"
        }
      ],
      "stateMutability": "nonpayable",
      "type": "constructor"
    },
    {
      "anonymous": false,
      "inputs": [
        {
          "indexed": true,
          "internalType": "address",
          "name": "owner",
          "type": "address"
        },
        {
          "indexed": true,
          "internalType": "address",
          "name": "approved",
          "type": "address"
        },
        {
          "indexed": true,
          "internalType": "uint256",
          "name": "tokenId",
          "type": "uint256"
        }
      ],
      "name": "Approval",
      "type": "event"
    },
    {
      "anonymous": false,
      "inputs": [
        {
          "indexed": true,
          "internalType": "address",
          "name": "owner",
          "type": "address"
        },
        {
          "indexed": true,
          "internalType": "address",
          "name": "operator",
          "type": "address"
        },
        {
          "indexed": false,
          "internalType": "bool",
          "name": "approved",
          "type": "bool"
        }
      ],
      "name": "ApprovalForAll",
      "type": "event"
    },
    {
      "anonymous": false,
      "inputs": [
        {
          "indexed": true,
          "internalType": "address",
          "name": "previousOwner",
          "type": "address"
        },
        {
          "indexed": true,
          "internalType": "address",
          "name": "newOwner",
          "type": "address"
        }
      ],
      "name": "OwnershipTransferred",
      "type": "event"
    },
    {
      "anonymous": false,
      "inputs": [
        {
          "indexed": true,
          "internalType": "address",
          "name": "from",
          "type": "address"
        },
        {
          "indexed": true,
          "internalType": "address",
          "name": "to",
          "type": "address"
        },
        {
          "indexed": true,
          "internalType": "uint256",
          "name": "tokenId",
          "type": "uint256"
        }
      ],
      "name": "Transfer",
      "type": "event"
    },
    {
      "inputs": [],
      "name": "PRICE",
      "outputs": [
        {
          "internalType": "uint256",
          "name": "",
          "type": "uint256"
        }
      ],
      "stateMutability": "view",
      "type": "function"
    },
    {
      "inputs": [],
      "name": "TOTAL_SUPPLY",
      "outputs": [
        {
          "internalType": "uint256",
          "name": "",
          "type": "uint256"
        }
      ],
      "stateMutability": "view",
      "type": "function"
    },
    {
      "inputs": [],
      "name": "URI",
      "outputs": [
        {
          "internalType": "string",
          "name": "",
          "type": "string"
        }
      ],
      "stateMutability": "view",
      "type": "function"
    },
    {
      "inputs": [
        {
          "internalType": "address",
          "name": "to",
          "type": "address"
        },
        {
          "internalType": "uint256",
          "name": "tokenId",
          "type": "uint256"
        }
      ],
      "name": "approve",
      "outputs": [],
      "stateMutability": "nonpayable",
      "type": "function"
    },
    {
      "inputs": [
        {
          "internalType": "address",
          "name": "owner",
          "type": "address"
        }
      ],
      "name": "balanceOf",
      "outputs": [
        {
          "internalType": "uint256",
          "name": "",
          "type": "uint256"
        }
      ],
      "stateMutability": "view",
      "type": "function"
    },
    {
      "inputs": [
        {
          "internalType": "uint256",
          "name": "tokenId",
          "type": "uint256"
        }
      ],
      "name": "getApproved",
      "outputs": [
        {
          "internalType": "address",
          "name": "",
          "type": "address"
        }
      ],
      "stateMutability": "view",
      "type": "function"
    },
    {
      "inputs": [
        {
          "internalType": "address",
          "name": "owner",
          "type": "address"
        },
        {
          "internalType": "address",
          "name": "operator",
          "type": "address"
        }
      ],
      "name": "isApprovedForAll",
      "outputs": [
        {
          "internalType": "bool",
          "name": "",
          "type": "bool"
        }
      ],
      "stateMutability": "view",
      "type": "function"
    },
    {
      "inputs": [],
      "name": "maxNftPurchase",
      "outputs": [
        {
          "internalType": "uint256",
          "name": "",
          "type": "uint256"
        }
      ],
      "stateMutability": "view",
      "type": "function"
    },
    {
      "inputs": [
        {
          "internalType": "uint256",
          "name": "numberOfTokens",
          "type": "uint256"
        }
      ],
      "name": "mintNft",
      "outputs": [],
      "stateMutability": "payable",
      "type": "function"
    },
    {
      "inputs": [],
      "name": "name",
      "outputs": [
        {
          "internalType": "string",
          "name": "",
          "type": "string"
        }
      ],
      "stateMutability": "view",
      "type": "function"
    },
    {
      "inputs": [],
      "name": "owner",
      "outputs": [
        {
          "internalType": "address",
          "name": "",
          "type": "address"
        }
      ],
      "stateMutability": "view",
      "type": "function"
    },
    {
      "inputs": [
        {
          "internalType": "uint256",
          "name": "tokenId",
          "type": "uint256"
        }
      ],
      "name": "ownerOf",
      "outputs": [
        {
          "internalType": "address",
          "name": "",
          "type": "address"
        }
      ],
      "stateMutability": "view",
      "type": "function"
    },
    {
      "inputs": [],
      "name": "refund",
      "outputs": [],
      "stateMutability": "nonpayable",
      "type": "function"
    },
    {
      "inputs": [],
      "name": "renounceOwnership",
      "outputs": [],
      "stateMutability": "nonpayable",
      "type": "function"
    },
    {
      "inputs": [
        {
          "internalType": "address",
          "name": "from",
          "type": "address"
        },
        {
          "internalType": "address",
          "name": "to",
          "type": "address"
        },
        {
          "internalType": "uint256",
          "name": "tokenId",
          "type": "uint256"
        }
      ],
      "name": "safeTransferFrom",
      "outputs": [],
      "stateMutability": "nonpayable",
      "type": "function"
    },
    {
      "inputs": [
        {
          "internalType": "address",
          "name": "from",
          "type": "address"
        },
        {
          "internalType": "address",
          "name": "to",
          "type": "address"
        },
        {
          "internalType": "uint256",
          "name": "tokenId",
          "type": "uint256"
        },
        {
          "internalType": "bytes",
          "name": "data",
          "type": "bytes"
        }
      ],
      "name": "safeTransferFrom",
      "outputs": [],
      "stateMutability": "nonpayable",
      "type": "function"
    },
    {
      "inputs": [
        {
          "internalType": "address",
          "name": "operator",
          "type": "address"
        },
        {
          "internalType": "bool",
          "name": "approved",
          "type": "bool"
        }
      ],
      "name": "setApprovalForAll",
      "outputs": [],
      "stateMutability": "nonpayable",
      "type": "function"
    },
    {
      "inputs": [
        {
          "internalType": "bytes4",
          "name": "interfaceId",
          "type": "bytes4"
        }
      ],
      "name": "supportsInterface",
      "outputs": [
        {
          "internalType": "bool",
          "name": "",
          "type": "bool"
        }
      ],
      "stateMutability": "view",
      "type": "function"
    },
    {
      "inputs": [],
      "name": "symbol",
      "outputs": [
        {
          "internalType": "string",
          "name": "",
          "type": "string"
        }
      ],
      "stateMutability": "view",
      "type": "function"
    },
    {
      "inputs": [
        {
          "internalType": "uint256",
          "name": "index",
          "type": "uint256"
        }
      ],
      "name": "tokenByIndex",
      "outputs": [
        {
          "internalType": "uint256",
          "name": "",
          "type": "uint256"
        }
      ],
      "stateMutability": "view",
      "type": "function"
    },
    {
      "inputs": [
        {
          "internalType": "address",
          "name": "owner",
          "type": "address"
        },
        {
          "internalType": "uint256",
          "name": "index",
          "type": "uint256"
        }
      ],
      "name": "tokenOfOwnerByIndex",
      "outputs": [
        {
          "internalType": "uint256",
          "name": "",
          "type": "uint256"
        }
      ],
      "stateMutability": "view",
      "type": "function"
    },
    {
      "inputs": [
        {
          "internalType": "uint256",
          "name": "tokenId",
          "type": "uint256"
        }
      ],
      "name": "tokenURI",
      "outputs": [
        {
          "internalType": "string",
          "name": "",
          "type": "string"
        }
      ],
      "stateMutability": "view",
      "type": "function"
    },
    {
      "inputs": [],
      "name": "totalSupply",
      "outputs": [
        {
          "internalType": "uint256",
          "name": "",
          "type": "uint256"
        }
      ],
      "stateMutability": "view",
      "type": "function"
    },
    {
      "inputs": [
        {
          "internalType": "address",
          "name": "from",
          "type": "address"
        },
        {
          "internalType": "address",
          "name": "to",
          "type": "address"
        },
        {
          "internalType": "uint256",
          "name": "tokenId",
          "type": "uint256"
        }
      ],
      "name": "transferFrom",
      "outputs": [],
      "stateMutability": "nonpayable",
      "type": "function"
    },
    {
      "inputs": [
        {
          "internalType": "address",
          "name": "newOwner",
          "type": "address"
        }
      ],
      "name": "transferOwnership",
      "outputs": [],
      "stateMutability": "nonpayable",
      "type": "function"
    }
  ],
  "bytecode": "0x60806040526064600b553480156200001657600080fd5b5060405162003d4938038062003d4983398181016040528101906200003c919062000300565b828281600090816200004f919062000604565b50806001908162000061919062000604565b50505062000084620000786200009f60201b60201c565b620000a760201b60201c565b80600c908162000095919062000604565b50505050620006eb565b600033905090565b6000600a60009054906101000a900473ffffffffffffffffffffffffffffffffffffffff16905081600a60006101000a81548173ffffffffffffffffffffffffffffffffffffffff021916908373ffffffffffffffffffffffffffffffffffffffff1602179055508173ffffffffffffffffffffffffffffffffffffffff168173ffffffffffffffffffffffffffffffffffffffff167f8be0079c531659141344cd1fd0a4f28419497f9722a3daafe3b4186f6b6457e060405160405180910390a35050565b6000604051905090565b600080fd5b600080fd5b600080fd5b600080fd5b6000601f19601f8301169050919050565b7f4e487b7100000000000000000000000000000000000000000000000000000000600052604160045260246000fd5b620001d6826200018b565b810181811067ffffffffffffffff82111715620001f857620001f76200019c565b5b80604052505050565b60006200020d6200016d565b90506200021b8282620001cb565b919050565b600067ffffffffffffffff8211156200023e576200023d6200019c565b5b62000249826200018b565b9050602081019050919050565b60005b838110156200027657808201518184015260208101905062000259565b60008484015250505050565b600062000299620002938462000220565b62000201565b905082815260208101848484011115620002b857620002b762000186565b5b620002c584828562000256565b509392505050565b600082601f830112620002e557620002e462000181565b5b8151620002f784826020860162000282565b91505092915050565b6000806000606084860312156200031c576200031b62000177565b5b600084015167ffffffffffffffff8111156200033d576200033c6200017c565b5b6200034b86828701620002cd565b935050602084015167ffffffffffffffff8111156200036f576200036e6200017c565b5b6200037d86828701620002cd565b925050604084015167ffffffffffffffff811115620003a157620003a06200017c565b5b620003af86828701620002cd565b9150509250925092565b600081519050919050565b7f4e487b7100000000000000000000000000000000000000000000000000000000600052602260045260246000fd5b600060028204905060018216806200040c57607f821691505b602082108103620004225762000421620003c4565b5b50919050565b60008190508160005260206000209050919050565b60006020601f8301049050919050565b600082821b905092915050565b6000600883026200048c7fffffffffffffffffffffffffffffffffffffffffffffffffffffffffffffffff826200044d565b6200049886836200044d565b95508019841693508086168417925050509392505050565b6000819050919050565b6000819050919050565b6000620004e5620004df620004d984620004b0565b620004ba565b620004b0565b9050919050565b6000819050919050565b6200050183620004c4565b620005196200051082620004ec565b8484546200045a565b825550505050565b600090565b6200053062000521565b6200053d818484620004f6565b505050565b5b8181101562000565576200055960008262000526565b60018101905062000543565b5050565b601f821115620005b4576200057e8162000428565b62000589846200043d565b8101602085101562000599578190505b620005b1620005a8856200043d565b83018262000542565b50505b505050565b600082821c905092915050565b6000620005d960001984600802620005b9565b1980831691505092915050565b6000620005f48383620005c6565b9150826002028217905092915050565b6200060f82620003b9565b67ffffffffffffffff8111156200062b576200062a6200019c565b5b620006378254620003f3565b6200064482828562000569565b600060209050601f8311600181146200067c576000841562000667578287015190505b620006738582620005e6565b865550620006e3565b601f1984166200068c8662000428565b60005b82811015620006b6578489015182556001820191506020850194506020810190506200068f565b86831015620006d65784890151620006d2601f891682620005c6565b8355505b6001600288020188555050505b505050505050565b61364e80620006fb6000396000f3fe6080604052600436106101665760003560e01c80636352211e116100d157806395d89b411161008a578063bde708f411610064578063bde708f41461051d578063c87b56dd14610548578063e985e9c514610585578063f2fde38b146105c257610166565b806395d89b41146104a0578063a22cb465146104cb578063b88d4fde146104f457610166565b80636352211e1461038e57806370a08231146103cb578063715018a6146104085780638d859f3e1461041f5780638da5cb5b1461044a578063902d55a51461047557610166565b806318160ddd1161012357806318160ddd1461028057806323b872dd146102ab5780632f745c59146102d457806342842e0e146103115780634f6ccce71461033a578063590e1ae31461037757610166565b806301ffc9a71461016b57806306fdde03146101a8578063081812fc146101d3578063095ea7b3146102105780630d730acc146102395780631141d7de14610255575b600080fd5b34801561017757600080fd5b50610192600480360381019061018d919061239b565b6105eb565b60405161019f91906123e3565b60405180910390f35b3480156101b457600080fd5b506101bd610665565b6040516101ca919061248e565b60405180910390f35b3480156101df57600080fd5b506101fa60048036038101906101f591906124e6565b6106f7565b6040516102079190612554565b60405180910390f35b34801561021c57600080fd5b506102376004803603810190610232919061259b565b61073d565b005b610253600480360381019061024e91906124e6565b610854565b005b34801561026157600080fd5b5061026a610a02565b604051610277919061248e565b60405180910390f35b34801561028c57600080fd5b50610295610a90565b6040516102a291906125ea565b60405180910390f35b3480156102b757600080fd5b506102d260048036038101906102cd9190612605565b610a9d565b005b3480156102e057600080fd5b506102fb60048036038101906102f6919061259b565b610afd565b60405161030891906125ea565b60405180910390f35b34801561031d57600080fd5b5061033860048036038101906103339190612605565b610ba2565b005b34801561034657600080fd5b50610361600480360381019061035c91906124e6565b610bc2565b60405161036e91906125ea565b60405180910390f35b34801561038357600080fd5b5061038c610c33565b005b34801561039a57600080fd5b506103b560048036038101906103b091906124e6565b610c8a565b6040516103c29190612554565b60405180910390f35b3480156103d757600080fd5b506103f260048036038101906103ed9190612658565b610d3b565b6040516103ff91906125ea565b60405180910390f35b34801561041457600080fd5b5061041d610df2565b005b34801561042b57600080fd5b50610434610e06565b60405161044191906125ea565b60405180910390f35b34801561045657600080fd5b5061045f610e11565b60405161046c9190612554565b60405180910390f35b34801561048157600080fd5b5061048a610e3b565b60405161049791906125ea565b60405180910390f35b3480156104ac57600080fd5b506104b5610e41565b6040516104c2919061248e565b60405180910390f35b3480156104d757600080fd5b506104f260048036038101906104ed91906126b1565b610ed3565b005b34801561050057600080fd5b5061051b60048036038101906105169190612826565b610ee9565b005b34801561052957600080fd5b50610532610f4b565b60405161053f91906125ea565b60405180910390f35b34801561055457600080fd5b5061056f600480360381019061056a91906124e6565b610f50565b60405161057c919061248e565b60405180910390f35b34801561059157600080fd5b506105ac60048036038101906105a791906128a9565b610fb8565b6040516105b991906123e3565b60405180910390f35b3480156105ce57600080fd5b506105e960048036038101906105e49190612658565b61104c565b005b60007f780e9d63000000000000000000000000000000000000000000000000000000007bffffffffffffffffffffffffffffffffffffffffffffffffffffffff1916827bffffffffffffffffffffffffffffffffffffffffffffffffffffffff1916148061065e575061065d826110cf565b5b9050919050565b60606000805461067490612918565b80601f01602080910402602001604051908101604052809291908181526020018280546106a090612918565b80156106ed5780601f106106c2576101008083540402835291602001916106ed565b820191906000526020600020905b8154815290600101906020018083116106d057829003601f168201915b5050505050905090565b6000610702826111b1565b6004600083815260200190815260200160002060009054906101000a900473ffffffffffffffffffffffffffffffffffffffff169050919050565b600061074882610c8a565b90508073ffffffffffffffffffffffffffffffffffffffff168373ffffffffffffffffffffffffffffffffffffffff16036107b8576040517f08c379a00000000000000000000000000000000000000000000000000000000081526004016107af906129bb565b60405180910390fd5b8073ffffffffffffffffffffffffffffffffffffffff166107d76111fc565b73ffffffffffffffffffffffffffffffffffffffff1614806108065750610805816108006111fc565b610fb8565b5b610845576040517f08c379a000000000000000000000000000000000000000000000000000000000815260040161083c90612a4d565b60405180910390fd5b61084f8383611204565b505050565b600061085e610a90565b9050600081600b546108709190612a9c565b90506000662386f26fc10000846108879190612ad0565b905060058411156108cd576040517f08c379a00000000000000000000000000000000000000000000000000000000081526004016108c490612b9c565b60405180910390fd5b600b5484846108dc9190612bbc565b11156108e7836112bd565b6040516020016108f79190612c78565b60405160208183030381529060405290610947576040517f08c379a000000000000000000000000000000000000000000000000000000000815260040161093e919061248e565b60405180910390fd5b5080341015610955826112bd565b6040516020016109659190612cf9565b604051602081830303815290604052906109b5576040517f08c379a00000000000000000000000000000000000000000000000000000000081526004016109ac919061248e565b60405180910390fd5b5060006001846109c59190612bbc565b905060005b858110156109fa576109e73382846109e29190612bbc565b61141d565b80806109f290612d2e565b9150506109ca565b505050505050565b600c8054610a0f90612918565b80601f0160208091040260200160405190810160405280929190818152602001828054610a3b90612918565b8015610a885780601f10610a5d57610100808354040283529160200191610a88565b820191906000526020600020905b815481529060010190602001808311610a6b57829003601f168201915b505050505081565b6000600880549050905090565b610aae610aa86111fc565b8261143b565b610aed576040517f08c379a0000000000000000000000000000000000000000000000000000000008152600401610ae490612de8565b60405180910390fd5b610af88383836114d0565b505050565b6000610b0883610d3b565b8210610b49576040517f08c379a0000000000000000000000000000000000000000000000000000000008152600401610b4090612e7a565b60405180910390fd5b600660008473ffffffffffffffffffffffffffffffffffffffff1673ffffffffffffffffffffffffffffffffffffffff168152602001908152602001600020600083815260200190815260200160002054905092915050565b610bbd83838360405180602001604052806000815250610ee9565b505050565b6000610bcc610a90565b8210610c0d576040517f08c379a0000000000000000000000000000000000000000000000000000000008152600401610c0490612f0c565b60405180910390fd5b60088281548110610c2157610c20612f2c565b5b90600052602060002001549050919050565b610c3b611736565b60004790503373ffffffffffffffffffffffffffffffffffffffff166108fc829081150290604051600060405180830381858888f19350505050158015610c86573d6000803e3d6000fd5b5050565b6000806002600084815260200190815260200160002060009054906101000a900473ffffffffffffffffffffffffffffffffffffffff169050600073ffffffffffffffffffffffffffffffffffffffff168173ffffffffffffffffffffffffffffffffffffffff1603610d32576040517f08c379a0000000000000000000000000000000000000000000000000000000008152600401610d2990612fa7565b60405180910390fd5b80915050919050565b60008073ffffffffffffffffffffffffffffffffffffffff168273ffffffffffffffffffffffffffffffffffffffff1603610dab576040517f08c379a0000000000000000000000000000000000000000000000000000000008152600401610da290613039565b60405180910390fd5b600360008373ffffffffffffffffffffffffffffffffffffffff1673ffffffffffffffffffffffffffffffffffffffff168152602001908152602001600020549050919050565b610dfa611736565b610e0460006117b4565b565b662386f26fc1000081565b6000600a60009054906101000a900473ffffffffffffffffffffffffffffffffffffffff16905090565b600b5481565b606060018054610e5090612918565b80601f0160208091040260200160405190810160405280929190818152602001828054610e7c90612918565b8015610ec95780601f10610e9e57610100808354040283529160200191610ec9565b820191906000526020600020905b815481529060010190602001808311610eac57829003601f168201915b5050505050905090565b610ee5610ede6111fc565b838361187a565b5050565b610efa610ef46111fc565b8361143b565b610f39576040517f08c379a0000000000000000000000000000000000000000000000000000000008152600401610f3090612de8565b60405180910390fd5b610f45848484846119e6565b50505050565b600581565b6060610f5b826111b1565b6000610f65611a42565b90506000815111610f855760405180602001604052806000815250610fb0565b80610f8f846112bd565b604051602001610fa0929190613059565b6040516020818303038152906040525b915050919050565b6000600560008473ffffffffffffffffffffffffffffffffffffffff1673ffffffffffffffffffffffffffffffffffffffff16815260200190815260200160002060008373ffffffffffffffffffffffffffffffffffffffff1673ffffffffffffffffffffffffffffffffffffffff16815260200190815260200160002060009054906101000a900460ff16905092915050565b611054611736565b600073ffffffffffffffffffffffffffffffffffffffff168173ffffffffffffffffffffffffffffffffffffffff16036110c3576040517f08c379a00000000000000000000000000000000000000000000000000000000081526004016110ba906130ef565b60405180910390fd5b6110cc816117b4565b50565b60007f80ac58cd000000000000000000000000000000000000000000000000000000007bffffffffffffffffffffffffffffffffffffffffffffffffffffffff1916827bffffffffffffffffffffffffffffffffffffffffffffffffffffffff1916148061119a57507f5b5e139f000000000000000000000000000000000000000000000000000000007bffffffffffffffffffffffffffffffffffffffffffffffffffffffff1916827bffffffffffffffffffffffffffffffffffffffffffffffffffffffff1916145b806111aa57506111a982611a59565b5b9050919050565b6111ba81611ac3565b6111f9576040517f08c379a00000000000000000000000000000000000000000000000000000000081526004016111f090612fa7565b60405180910390fd5b50565b600033905090565b816004600083815260200190815260200160002060006101000a81548173ffffffffffffffffffffffffffffffffffffffff021916908373ffffffffffffffffffffffffffffffffffffffff160217905550808273ffffffffffffffffffffffffffffffffffffffff1661127783610c8a565b73ffffffffffffffffffffffffffffffffffffffff167f8c5be1e5ebec7d5bd14f71427d1e84f3dd0314c0f7b2291e5b200ac8c7c3b92560405160405180910390a45050565b606060008203611304576040518060400160405280600181526020017f30000000000000000000000000000000000000000000000000000000000000008152509050611418565b600082905060005b6000821461133657808061131f90612d2e565b915050600a8261132f919061313e565b915061130c565b60008167ffffffffffffffff811115611352576113516126fb565b5b6040519080825280601f01601f1916602001820160405280156113845781602001600182028036833780820191505090505b5090505b600085146114115760018261139d9190612a9c565b9150600a856113ac919061316f565b60306113b89190612bbc565b60f81b8183815181106113ce576113cd612f2c565b5b60200101907effffffffffffffffffffffffffffffffffffffffffffffffffffffffffffff1916908160001a905350600a8561140a919061313e565b9450611388565b8093505050505b919050565b611437828260405180602001604052806000815250611b2f565b5050565b60008061144783610c8a565b90508073ffffffffffffffffffffffffffffffffffffffff168473ffffffffffffffffffffffffffffffffffffffff16148061148957506114888185610fb8565b5b806114c757508373ffffffffffffffffffffffffffffffffffffffff166114af846106f7565b73ffffffffffffffffffffffffffffffffffffffff16145b91505092915050565b8273ffffffffffffffffffffffffffffffffffffffff166114f082610c8a565b73ffffffffffffffffffffffffffffffffffffffff1614611546576040517f08c379a000000000000000000000000000000000000000000000000000000000815260040161153d90613212565b60405180910390fd5b600073ffffffffffffffffffffffffffffffffffffffff168273ffffffffffffffffffffffffffffffffffffffff16036115b5576040517f08c379a00000000000000000000000000000000000000000000000000000000081526004016115ac906132a4565b60405180910390fd5b6115c0838383611b8a565b6115cb600082611204565b6001600360008573ffffffffffffffffffffffffffffffffffffffff1673ffffffffffffffffffffffffffffffffffffffff168152602001908152602001600020600082825461161b9190612a9c565b925050819055506001600360008473ffffffffffffffffffffffffffffffffffffffff1673ffffffffffffffffffffffffffffffffffffffff16815260200190815260200160002060008282546116729190612bbc565b92505081905550816002600083815260200190815260200160002060006101000a81548173ffffffffffffffffffffffffffffffffffffffff021916908373ffffffffffffffffffffffffffffffffffffffff160217905550808273ffffffffffffffffffffffffffffffffffffffff168473ffffffffffffffffffffffffffffffffffffffff167fddf252ad1be2c89b69c2b068fc378daa952ba7f163c4a11628f55a4df523b3ef60405160405180910390a4611731838383611c9c565b505050565b61173e6111fc565b73ffffffffffffffffffffffffffffffffffffffff1661175c610e11565b73ffffffffffffffffffffffffffffffffffffffff16146117b2576040517f08c379a00000000000000000000000000000000000000000000000000000000081526004016117a990613310565b60405180910390fd5b565b6000600a60009054906101000a900473ffffffffffffffffffffffffffffffffffffffff16905081600a60006101000a81548173ffffffffffffffffffffffffffffffffffffffff021916908373ffffffffffffffffffffffffffffffffffffffff1602179055508173ffffffffffffffffffffffffffffffffffffffff168173ffffffffffffffffffffffffffffffffffffffff167f8be0079c531659141344cd1fd0a4f28419497f9722a3daafe3b4186f6b6457e060405160405180910390a35050565b8173ffffffffffffffffffffffffffffffffffffffff168373ffffffffffffffffffffffffffffffffffffffff16036118e8576040517f08c379a00000000000000000000000000000000000000000000000000000000081526004016118df9061337c565b60405180910390fd5b80600560008573ffffffffffffffffffffffffffffffffffffffff1673ffffffffffffffffffffffffffffffffffffffff16815260200190815260200160002060008473ffffffffffffffffffffffffffffffffffffffff1673ffffffffffffffffffffffffffffffffffffffff16815260200190815260200160002060006101000a81548160ff0219169083151502179055508173ffffffffffffffffffffffffffffffffffffffff168373ffffffffffffffffffffffffffffffffffffffff167f17307eab39ab6107e8899845ad3d59bd9653f200f220920489ca2b5937696c31836040516119d991906123e3565b60405180910390a3505050565b6119f18484846114d0565b6119fd84848484611ca1565b611a3c576040517f08c379a0000000000000000000000000000000000000000000000000000000008152600401611a339061340e565b60405180910390fd5b50505050565b606060405180602001604052806000815250905090565b60007f01ffc9a7000000000000000000000000000000000000000000000000000000007bffffffffffffffffffffffffffffffffffffffffffffffffffffffff1916827bffffffffffffffffffffffffffffffffffffffffffffffffffffffff1916149050919050565b60008073ffffffffffffffffffffffffffffffffffffffff166002600084815260200190815260200160002060009054906101000a900473ffffffffffffffffffffffffffffffffffffffff1673ffffffffffffffffffffffffffffffffffffffff1614159050919050565b611b398383611e28565b611b466000848484611ca1565b611b85576040517f08c379a0000000000000000000000000000000000000000000000000000000008152600401611b7c9061340e565b60405180910390fd5b505050565b611b95838383612001565b600073ffffffffffffffffffffffffffffffffffffffff168373ffffffffffffffffffffffffffffffffffffffff1603611bd757611bd281612006565b611c16565b8173ffffffffffffffffffffffffffffffffffffffff168373ffffffffffffffffffffffffffffffffffffffff1614611c1557611c14838261204f565b5b5b600073ffffffffffffffffffffffffffffffffffffffff168273ffffffffffffffffffffffffffffffffffffffff1603611c5857611c53816121bc565b611c97565b8273ffffffffffffffffffffffffffffffffffffffff168273ffffffffffffffffffffffffffffffffffffffff1614611c9657611c95828261228d565b5b5b505050565b505050565b6000611cc28473ffffffffffffffffffffffffffffffffffffffff1661230c565b15611e1b578373ffffffffffffffffffffffffffffffffffffffff1663150b7a02611ceb6111fc565b8786866040518563ffffffff1660e01b8152600401611d0d9493929190613483565b6020604051808303816000875af1925050508015611d4957506040513d601f19601f82011682018060405250810190611d4691906134e4565b60015b611dcb573d8060008114611d79576040519150601f19603f3d011682016040523d82523d6000602084013e611d7e565b606091505b506000815103611dc3576040517f08c379a0000000000000000000000000000000000000000000000000000000008152600401611dba9061340e565b60405180910390fd5b805181602001fd5b63150b7a0260e01b7bffffffffffffffffffffffffffffffffffffffffffffffffffffffff1916817bffffffffffffffffffffffffffffffffffffffffffffffffffffffff191614915050611e20565b600190505b949350505050565b600073ffffffffffffffffffffffffffffffffffffffff168273ffffffffffffffffffffffffffffffffffffffff1603611e97576040517f08c379a0000000000000000000000000000000000000000000000000000000008152600401611e8e9061355d565b60405180910390fd5b611ea081611ac3565b15611ee0576040517f08c379a0000000000000000000000000000000000000000000000000000000008152600401611ed7906135c9565b60405180910390fd5b611eec60008383611b8a565b6001600360008473ffffffffffffffffffffffffffffffffffffffff1673ffffffffffffffffffffffffffffffffffffffff1681526020019081526020016000206000828254611f3c9190612bbc565b92505081905550816002600083815260200190815260200160002060006101000a81548173ffffffffffffffffffffffffffffffffffffffff021916908373ffffffffffffffffffffffffffffffffffffffff160217905550808273ffffffffffffffffffffffffffffffffffffffff16600073ffffffffffffffffffffffffffffffffffffffff167fddf252ad1be2c89b69c2b068fc378daa952ba7f163c4a11628f55a4df523b3ef60405160405180910390a4611ffd60008383611c9c565b5050565b505050565b6008805490506009600083815260200190815260200160002081905550600881908060018154018082558091505060019003906000526020600020016000909190919091505550565b6000600161205c84610d3b565b6120669190612a9c565b905060006007600084815260200190815260200160002054905081811461214b576000600660008673ffffffffffffffffffffffffffffffffffffffff1673ffffffffffffffffffffffffffffffffffffffff168152602001908152602001600020600084815260200190815260200160002054905080600660008773ffffffffffffffffffffffffffffffffffffffff1673ffffffffffffffffffffffffffffffffffffffff168152602001908152602001600020600084815260200190815260200160002081905550816007600083815260200190815260200160002081905550505b6007600084815260200190815260200160002060009055600660008573ffffffffffffffffffffffffffffffffffffffff1673ffffffffffffffffffffffffffffffffffffffff16815260200190815260200160002060008381526020019081526020016000206000905550505050565b600060016008805490506121d09190612a9c565b9050600060096000848152602001908152602001600020549050600060088381548110612200576121ff612f2c565b5b90600052602060002001549050806008838154811061222257612221612f2c565b5b906000526020600020018190555081600960008381526020019081526020016000208190555060096000858152602001908152602001600020600090556008805480612271576122706135e9565b5b6001900381819060005260206000200160009055905550505050565b600061229883610d3b565b905081600660008573ffffffffffffffffffffffffffffffffffffffff1673ffffffffffffffffffffffffffffffffffffffff168152602001908152602001600020600083815260200190815260200160002081905550806007600084815260200190815260200160002081905550505050565b6000808273ffffffffffffffffffffffffffffffffffffffff163b119050919050565b6000604051905090565b600080fd5b600080fd5b60007fffffffff0000000000000000000000000000000000000000000000000000000082169050919050565b61237881612343565b811461238357600080fd5b50565b6000813590506123958161236f565b92915050565b6000602082840312156123b1576123b0612339565b5b60006123bf84828501612386565b91505092915050565b60008115159050919050565b6123dd816123c8565b82525050565b60006020820190506123f860008301846123d4565b92915050565b600081519050919050565b600082825260208201905092915050565b60005b8381101561243857808201518184015260208101905061241d565b60008484015250505050565b6000601f19601f8301169050919050565b6000612460826123fe565b61246a8185612409565b935061247a81856020860161241a565b61248381612444565b840191505092915050565b600060208201905081810360008301526124a88184612455565b905092915050565b6000819050919050565b6124c3816124b0565b81146124ce57600080fd5b50565b6000813590506124e0816124ba565b92915050565b6000602082840312156124fc576124fb612339565b5b600061250a848285016124d1565b91505092915050565b600073ffffffffffffffffffffffffffffffffffffffff82169050919050565b600061253e82612513565b9050919050565b61254e81612533565b82525050565b60006020820190506125696000830184612545565b92915050565b61257881612533565b811461258357600080fd5b50565b6000813590506125958161256f565b92915050565b600080604083850312156125b2576125b1612339565b5b60006125c085828601612586565b92505060206125d1858286016124d1565b9150509250929050565b6125e4816124b0565b82525050565b60006020820190506125ff60008301846125db565b92915050565b60008060006060848603121561261e5761261d612339565b5b600061262c86828701612586565b935050602061263d86828701612586565b925050604061264e868287016124d1565b9150509250925092565b60006020828403121561266e5761266d612339565b5b600061267c84828501612586565b91505092915050565b61268e816123c8565b811461269957600080fd5b50565b6000813590506126ab81612685565b92915050565b600080604083850312156126c8576126c7612339565b5b60006126d685828601612586565b92505060206126e78582860161269c565b9150509250929050565b600080fd5b600080fd5b7f4e487b7100000000000000000000000000000000000000000000000000000000600052604160045260246000fd5b61273382612444565b810181811067ffffffffffffffff82111715612752576127516126fb565b5b80604052505050565b600061276561232f565b9050612771828261272a565b919050565b600067ffffffffffffffff821115612791576127906126fb565b5b61279a82612444565b9050602081019050919050565b82818337600083830152505050565b60006127c96127c484612776565b61275b565b9050828152602081018484840111156127e5576127e46126f6565b5b6127f08482856127a7565b509392505050565b600082601f83011261280d5761280c6126f1565b5b813561281d8482602086016127b6565b91505092915050565b600080600080608085870312156128405761283f612339565b5b600061284e87828801612586565b945050602061285f87828801612586565b9350506040612870878288016124d1565b925050606085013567ffffffffffffffff8111156128915761289061233e565b5b61289d878288016127f8565b91505092959194509250565b600080604083850312156128c0576128bf612339565b5b60006128ce85828601612586565b92505060206128df85828601612586565b9150509250929050565b7f4e487b7100000000000000000000000000000000000000000000000000000000600052602260045260246000fd5b6000600282049050600182168061293057607f821691505b602082108103612943576129426128e9565b5b50919050565b7f4552433732313a20617070726f76616c20746f2063757272656e74206f776e6560008201527f7200000000000000000000000000000000000000000000000000000000000000602082015250565b60006129a5602183612409565b91506129b082612949565b604082019050919050565b600060208201905081810360008301526129d481612998565b9050919050565b7f4552433732313a20617070726f76652063616c6c6572206973206e6f7420746f60008201527f6b656e206f776e6572206e6f7220617070726f76656420666f7220616c6c0000602082015250565b6000612a37603e83612409565b9150612a42826129db565b604082019050919050565b60006020820190508181036000830152612a6681612a2a565b9050919050565b7f4e487b7100000000000000000000000000000000000000000000000000000000600052601160045260246000fd5b6000612aa7826124b0565b9150612ab2836124b0565b9250828203905081811115612aca57612ac9612a6d565b5b92915050565b6000612adb826124b0565b9150612ae6836124b0565b9250817fffffffffffffffffffffffffffffffffffffffffffffffffffffffffffffffff0483118215151615612b1f57612b1e612a6d565b5b828202905092915050565b7f596f752063616e206f6e6c79206d696e7420757020746f2035204e465473206960008201527f6e20612073696e676c65207472616e73616374696f6e00000000000000000000602082015250565b6000612b86603683612409565b9150612b9182612b2a565b604082019050919050565b60006020820190508181036000830152612bb581612b79565b9050919050565b6000612bc7826124b0565b9150612bd2836124b0565b9250828201905080821115612bea57612be9612a6d565b5b92915050565b7f536f6c64206f757421204f6e6c79200000000000000000000000000000000000815250565b600081905092915050565b6000612c2c826123fe565b612c368185612c16565b9350612c4681856020860161241a565b80840191505092915050565b7f204e4654287329206c6566742e00000000000000000000000000000000000000815250565b6000612c8382612bf0565b600f82019150612c938284612c21565b9150612c9e82612c52565b600d8201915081905092915050565b7f596f75206d7573742073656e64206174206c6561737420000000000000000000815250565b7f2065746865720000000000000000000000000000000000000000000000000000815250565b6000612d0482612cad565b601782019150612d148284612c21565b9150612d1f82612cd3565b60068201915081905092915050565b6000612d39826124b0565b91507fffffffffffffffffffffffffffffffffffffffffffffffffffffffffffffffff8203612d6b57612d6a612a6d565b5b600182019050919050565b7f4552433732313a2063616c6c6572206973206e6f7420746f6b656e206f776e6560008201527f72206e6f7220617070726f766564000000000000000000000000000000000000602082015250565b6000612dd2602e83612409565b9150612ddd82612d76565b604082019050919050565b60006020820190508181036000830152612e0181612dc5565b9050919050565b7f455243373231456e756d657261626c653a206f776e657220696e646578206f7560008201527f74206f6620626f756e6473000000000000000000000000000000000000000000602082015250565b6000612e64602b83612409565b9150612e6f82612e08565b604082019050919050565b60006020820190508181036000830152612e9381612e57565b9050919050565b7f455243373231456e756d657261626c653a20676c6f62616c20696e646578206f60008201527f7574206f6620626f756e64730000000000000000000000000000000000000000602082015250565b6000612ef6602c83612409565b9150612f0182612e9a565b604082019050919050565b60006020820190508181036000830152612f2581612ee9565b9050919050565b7f4e487b7100000000000000000000000000000000000000000000000000000000600052603260045260246000fd5b7f4552433732313a20696e76616c696420746f6b656e2049440000000000000000600082015250565b6000612f91601883612409565b9150612f9c82612f5b565b602082019050919050565b60006020820190508181036000830152612fc081612f84565b9050919050565b7f4552433732313a2061646472657373207a65726f206973206e6f74206120766160008201527f6c6964206f776e65720000000000000000000000000000000000000000000000602082015250565b6000613023602983612409565b915061302e82612fc7565b604082019050919050565b6000602082019050818103600083015261305281613016565b9050919050565b60006130658285612c21565b91506130718284612c21565b91508190509392505050565b7f4f776e61626c653a206e6577206f776e657220697320746865207a65726f206160008201527f6464726573730000000000000000000000000000000000000000000000000000602082015250565b60006130d9602683612409565b91506130e48261307d565b604082019050919050565b60006020820190508181036000830152613108816130cc565b9050919050565b7f4e487b7100000000000000000000000000000000000000000000000000000000600052601260045260246000fd5b6000613149826124b0565b9150613154836124b0565b9250826131645761316361310f565b5b828204905092915050565b600061317a826124b0565b9150613185836124b0565b9250826131955761319461310f565b5b828206905092915050565b7f4552433732313a207472616e736665722066726f6d20696e636f72726563742060008201527f6f776e6572000000000000000000000000000000000000000000000000000000602082015250565b60006131fc602583612409565b9150613207826131a0565b604082019050919050565b6000602082019050818103600083015261322b816131ef565b9050919050565b7f4552433732313a207472616e7366657220746f20746865207a65726f2061646460008201527f7265737300000000000000000000000000000000000000000000000000000000602082015250565b600061328e602483612409565b915061329982613232565b604082019050919050565b600060208201905081810360008301526132bd81613281565b9050919050565b7f4f776e61626c653a2063616c6c6572206973206e6f7420746865206f776e6572600082015250565b60006132fa602083612409565b9150613305826132c4565b602082019050919050565b60006020820190508181036000830152613329816132ed565b9050919050565b7f4552433732313a20617070726f766520746f2063616c6c657200000000000000600082015250565b6000613366601983612409565b915061337182613330565b602082019050919050565b6000602082019050818103600083015261339581613359565b9050919050565b7f4552433732313a207472616e7366657220746f206e6f6e20455243373231526560008201527f63656976657220696d706c656d656e7465720000000000000000000000000000602082015250565b60006133f8603283612409565b91506134038261339c565b604082019050919050565b60006020820190508181036000830152613427816133eb565b9050919050565b600081519050919050565b600082825260208201905092915050565b60006134558261342e565b61345f8185613439565b935061346f81856020860161241a565b61347881612444565b840191505092915050565b60006080820190506134986000830187612545565b6134a56020830186612545565b6134b260408301856125db565b81810360608301526134c4818461344a565b905095945050505050565b6000815190506134de8161236f565b92915050565b6000602082840312156134fa576134f9612339565b5b6000613508848285016134cf565b91505092915050565b7f4552433732313a206d696e7420746f20746865207a65726f2061646472657373600082015250565b6000613547602083612409565b915061355282613511565b602082019050919050565b600060208201905081810360008301526135768161353a565b9050919050565b7f4552433732313a20746f6b656e20616c7265616479206d696e74656400000000600082015250565b60006135b3601c83612409565b91506135be8261357d565b602082019050919050565b600060208201905081810360008301526135e2816135a6565b9050919050565b7f4e487b7100000000000000000000000000000000000000000000000000000000600052603160045260246000fdfea2646970667358221220b314339322af2094399a52a7dbccc055b9fddea95a64d9c512873d6d627c5cf264736f6c63430008100033",
  "linkReferences": {},
  "deployedLinkReferences": {}
}