{
  "_format": "hh-sol-artifact-1",
  "contractName": "FstNFT",
  "sourceName": "contracts/Nft.sol",
  "abi": [
    {
      "inputs": [],
      "stateMutability": "nonpayable",
      "type": "constructor"
    },
    {
      "anonymous": false,
      "inputs": [
        {
          "indexed": true,
          "internalType": "address",
          "name": "owner",
          "type": "address"
        },
        {
          "indexed": true,
          "internalType": "address",
          "name": "approved",
          "type": "address"
        },
        {
          "indexed": true,
          "internalType": "uint256",
          "name": "tokenId",
          "type": "uint256"
        }
      ],
      "name": "Approval",
      "type": "event"
    },
    {
      "anonymous": false,
      "inputs": [
        {
          "indexed": true,
          "internalType": "address",
          "name": "owner",
          "type": "address"
        },
        {
          "indexed": true,
          "internalType": "address",
          "name": "operator",
          "type": "address"
        },
        {
          "indexed": false,
          "internalType": "bool",
          "name": "approved",
          "type": "bool"
        }
      ],
      "name": "ApprovalForAll",
      "type": "event"
    },
    {
      "anonymous": false,
      "inputs": [
        {
          "indexed": true,
          "internalType": "address",
          "name": "previousOwner",
          "type": "address"
        },
        {
          "indexed": true,
          "internalType": "address",
          "name": "newOwner",
          "type": "address"
        }
      ],
      "name": "OwnershipTransferred",
      "type": "event"
    },
    {
      "anonymous": false,
      "inputs": [
        {
          "indexed": true,
          "internalType": "address",
          "name": "from",
          "type": "address"
        },
        {
          "indexed": true,
          "internalType": "address",
          "name": "to",
          "type": "address"
        },
        {
          "indexed": true,
          "internalType": "uint256",
          "name": "tokenId",
          "type": "uint256"
        }
      ],
      "name": "Transfer",
      "type": "event"
    },
    {
      "inputs": [],
      "name": "PRICE",
      "outputs": [
        {
          "internalType": "uint256",
          "name": "",
          "type": "uint256"
        }
      ],
      "stateMutability": "view",
      "type": "function"
    },
    {
      "inputs": [],
      "name": "TOTAL_SUPPLY",
      "outputs": [
        {
          "internalType": "uint256",
          "name": "",
          "type": "uint256"
        }
      ],
      "stateMutability": "view",
      "type": "function"
    },
    {
      "inputs": [],
      "name": "URI",
      "outputs": [
        {
          "internalType": "string",
          "name": "",
          "type": "string"
        }
      ],
      "stateMutability": "view",
      "type": "function"
    },
    {
      "inputs": [
        {
          "internalType": "address",
          "name": "to",
          "type": "address"
        },
        {
          "internalType": "uint256",
          "name": "tokenId",
          "type": "uint256"
        }
      ],
      "name": "approve",
      "outputs": [],
      "stateMutability": "nonpayable",
      "type": "function"
    },
    {
      "inputs": [
        {
          "internalType": "address",
          "name": "owner",
          "type": "address"
        }
      ],
      "name": "balanceOf",
      "outputs": [
        {
          "internalType": "uint256",
          "name": "",
          "type": "uint256"
        }
      ],
      "stateMutability": "view",
      "type": "function"
    },
    {
      "inputs": [
        {
          "internalType": "uint256",
          "name": "tokenId",
          "type": "uint256"
        }
      ],
      "name": "getApproved",
      "outputs": [
        {
          "internalType": "address",
          "name": "",
          "type": "address"
        }
      ],
      "stateMutability": "view",
      "type": "function"
    },
    {
      "inputs": [
        {
          "internalType": "address",
          "name": "owner",
          "type": "address"
        },
        {
          "internalType": "address",
          "name": "operator",
          "type": "address"
        }
      ],
      "name": "isApprovedForAll",
      "outputs": [
        {
          "internalType": "bool",
          "name": "",
          "type": "bool"
        }
      ],
      "stateMutability": "view",
      "type": "function"
    },
    {
      "inputs": [],
      "name": "maxNftPurchase",
      "outputs": [
        {
          "internalType": "uint256",
          "name": "",
          "type": "uint256"
        }
      ],
      "stateMutability": "view",
      "type": "function"
    },
    {
      "inputs": [
        {
          "internalType": "uint256",
          "name": "numberOfTokens",
          "type": "uint256"
        }
      ],
      "name": "mintNft",
      "outputs": [],
      "stateMutability": "payable",
      "type": "function"
    },
    {
      "inputs": [],
      "name": "name",
      "outputs": [
        {
          "internalType": "string",
          "name": "",
          "type": "string"
        }
      ],
      "stateMutability": "view",
      "type": "function"
    },
    {
      "inputs": [],
      "name": "owner",
      "outputs": [
        {
          "internalType": "address",
          "name": "",
          "type": "address"
        }
      ],
      "stateMutability": "view",
      "type": "function"
    },
    {
      "inputs": [
        {
          "internalType": "uint256",
          "name": "tokenId",
          "type": "uint256"
        }
      ],
      "name": "ownerOf",
      "outputs": [
        {
          "internalType": "address",
          "name": "",
          "type": "address"
        }
      ],
      "stateMutability": "view",
      "type": "function"
    },
    {
      "inputs": [],
      "name": "refund",
      "outputs": [],
      "stateMutability": "nonpayable",
      "type": "function"
    },
    {
      "inputs": [],
      "name": "renounceOwnership",
      "outputs": [],
      "stateMutability": "nonpayable",
      "type": "function"
    },
    {
      "inputs": [
        {
          "internalType": "address",
          "name": "from",
          "type": "address"
        },
        {
          "internalType": "address",
          "name": "to",
          "type": "address"
        },
        {
          "internalType": "uint256",
          "name": "tokenId",
          "type": "uint256"
        }
      ],
      "name": "safeTransferFrom",
      "outputs": [],
      "stateMutability": "nonpayable",
      "type": "function"
    },
    {
      "inputs": [
        {
          "internalType": "address",
          "name": "from",
          "type": "address"
        },
        {
          "internalType": "address",
          "name": "to",
          "type": "address"
        },
        {
          "internalType": "uint256",
          "name": "tokenId",
          "type": "uint256"
        },
        {
          "internalType": "bytes",
          "name": "data",
          "type": "bytes"
        }
      ],
      "name": "safeTransferFrom",
      "outputs": [],
      "stateMutability": "nonpayable",
      "type": "function"
    },
    {
      "inputs": [
        {
          "internalType": "address",
          "name": "operator",
          "type": "address"
        },
        {
          "internalType": "bool",
          "name": "approved",
          "type": "bool"
        }
      ],
      "name": "setApprovalForAll",
      "outputs": [],
      "stateMutability": "nonpayable",
      "type": "function"
    },
    {
      "inputs": [
        {
          "internalType": "bytes4",
          "name": "interfaceId",
          "type": "bytes4"
        }
      ],
      "name": "supportsInterface",
      "outputs": [
        {
          "internalType": "bool",
          "name": "",
          "type": "bool"
        }
      ],
      "stateMutability": "view",
      "type": "function"
    },
    {
      "inputs": [],
      "name": "symbol",
      "outputs": [
        {
          "internalType": "string",
          "name": "",
          "type": "string"
        }
      ],
      "stateMutability": "view",
      "type": "function"
    },
    {
      "inputs": [
        {
          "internalType": "uint256",
          "name": "index",
          "type": "uint256"
        }
      ],
      "name": "tokenByIndex",
      "outputs": [
        {
          "internalType": "uint256",
          "name": "",
          "type": "uint256"
        }
      ],
      "stateMutability": "view",
      "type": "function"
    },
    {
      "inputs": [
        {
          "internalType": "address",
          "name": "owner",
          "type": "address"
        },
        {
          "internalType": "uint256",
          "name": "index",
          "type": "uint256"
        }
      ],
      "name": "tokenOfOwnerByIndex",
      "outputs": [
        {
          "internalType": "uint256",
          "name": "",
          "type": "uint256"
        }
      ],
      "stateMutability": "view",
      "type": "function"
    },
    {
      "inputs": [
        {
          "internalType": "uint256",
          "name": "tokenId",
          "type": "uint256"
        }
      ],
      "name": "tokenURI",
      "outputs": [
        {
          "internalType": "string",
          "name": "",
          "type": "string"
        }
      ],
      "stateMutability": "view",
      "type": "function"
    },
    {
      "inputs": [],
      "name": "totalSupply",
      "outputs": [
        {
          "internalType": "uint256",
          "name": "",
          "type": "uint256"
        }
      ],
      "stateMutability": "view",
      "type": "function"
    },
    {
      "inputs": [
        {
          "internalType": "address",
          "name": "from",
          "type": "address"
        },
        {
          "internalType": "address",
          "name": "to",
          "type": "address"
        },
        {
          "internalType": "uint256",
          "name": "tokenId",
          "type": "uint256"
        }
      ],
      "name": "transferFrom",
      "outputs": [],
      "stateMutability": "nonpayable",
      "type": "function"
    },
    {
      "inputs": [
        {
          "internalType": "address",
          "name": "newOwner",
          "type": "address"
        }
      ],
      "name": "transferOwnership",
      "outputs": [],
      "stateMutability": "nonpayable",
      "type": "function"
    }
  ],
  "bytecode": "0x60806040526064600b556040518060600160405280603581526020016200395460359139600c90805190602001906200003a929190620001dd565b503480156200004857600080fd5b506040518060400160405280600581526020017f46697273740000000000000000000000000000000000000000000000000000008152506040518060400160405280600381526020017f46535400000000000000000000000000000000000000000000000000000000008152508160009080519060200190620000cd929190620001dd565b508060019080519060200190620000e6929190620001dd565b50505062000109620000fd6200010f60201b60201c565b6200011760201b60201c565b620002f2565b600033905090565b6000600a60009054906101000a900473ffffffffffffffffffffffffffffffffffffffff16905081600a60006101000a81548173ffffffffffffffffffffffffffffffffffffffff021916908373ffffffffffffffffffffffffffffffffffffffff1602179055508173ffffffffffffffffffffffffffffffffffffffff168173ffffffffffffffffffffffffffffffffffffffff167f8be0079c531659141344cd1fd0a4f28419497f9722a3daafe3b4186f6b6457e060405160405180910390a35050565b828054620001eb90620002bc565b90600052602060002090601f0160209004810192826200020f57600085556200025b565b82601f106200022a57805160ff19168380011785556200025b565b828001600101855582156200025b579182015b828111156200025a5782518255916020019190600101906200023d565b5b5090506200026a91906200026e565b5090565b5b80821115620002895760008160009055506001016200026f565b5090565b7f4e487b7100000000000000000000000000000000000000000000000000000000600052602260045260246000fd5b60006002820490506001821680620002d557607f821691505b60208210811415620002ec57620002eb6200028d565b5b50919050565b61365280620003026000396000f3fe6080604052600436106101665760003560e01c80636352211e116100d157806395d89b411161008a578063bde708f411610064578063bde708f41461051d578063c87b56dd14610548578063e985e9c514610585578063f2fde38b146105c257610166565b806395d89b41146104a0578063a22cb465146104cb578063b88d4fde146104f457610166565b80636352211e1461038e57806370a08231146103cb578063715018a6146104085780638d859f3e1461041f5780638da5cb5b1461044a578063902d55a51461047557610166565b806318160ddd1161012357806318160ddd1461028057806323b872dd146102ab5780632f745c59146102d457806342842e0e146103115780634f6ccce71461033a578063590e1ae31461037757610166565b806301ffc9a71461016b57806306fdde03146101a8578063081812fc146101d3578063095ea7b3146102105780630d730acc146102395780631141d7de14610255575b600080fd5b34801561017757600080fd5b50610192600480360381019061018d9190612350565b6105eb565b60405161019f9190612398565b60405180910390f35b3480156101b457600080fd5b506101bd610665565b6040516101ca919061244c565b60405180910390f35b3480156101df57600080fd5b506101fa60048036038101906101f591906124a4565b6106f7565b6040516102079190612512565b60405180910390f35b34801561021c57600080fd5b5061023760048036038101906102329190612559565b61073d565b005b610253600480360381019061024e91906124a4565b610855565b005b34801561026157600080fd5b5061026a6109ad565b604051610277919061244c565b60405180910390f35b34801561028c57600080fd5b50610295610a3b565b6040516102a291906125a8565b60405180910390f35b3480156102b757600080fd5b506102d260048036038101906102cd91906125c3565b610a48565b005b3480156102e057600080fd5b506102fb60048036038101906102f69190612559565b610aa8565b60405161030891906125a8565b60405180910390f35b34801561031d57600080fd5b50610338600480360381019061033391906125c3565b610b4d565b005b34801561034657600080fd5b50610361600480360381019061035c91906124a4565b610b6d565b60405161036e91906125a8565b60405180910390f35b34801561038357600080fd5b5061038c610bde565b005b34801561039a57600080fd5b506103b560048036038101906103b091906124a4565b610c35565b6040516103c29190612512565b60405180910390f35b3480156103d757600080fd5b506103f260048036038101906103ed9190612616565b610ce7565b6040516103ff91906125a8565b60405180910390f35b34801561041457600080fd5b5061041d610d9f565b005b34801561042b57600080fd5b50610434610db3565b60405161044191906125a8565b60405180910390f35b34801561045657600080fd5b5061045f610dbe565b60405161046c9190612512565b60405180910390f35b34801561048157600080fd5b5061048a610de8565b60405161049791906125a8565b60405180910390f35b3480156104ac57600080fd5b506104b5610dee565b6040516104c2919061244c565b60405180910390f35b3480156104d757600080fd5b506104f260048036038101906104ed919061266f565b610e80565b005b34801561050057600080fd5b5061051b600480360381019061051691906127e4565b610e96565b005b34801561052957600080fd5b50610532610ef8565b60405161053f91906125a8565b60405180910390f35b34801561055457600080fd5b5061056f600480360381019061056a91906124a4565b610efd565b60405161057c919061244c565b60405180910390f35b34801561059157600080fd5b506105ac60048036038101906105a79190612867565b610f65565b6040516105b99190612398565b60405180910390f35b3480156105ce57600080fd5b506105e960048036038101906105e49190612616565b610ff9565b005b60007f780e9d63000000000000000000000000000000000000000000000000000000007bffffffffffffffffffffffffffffffffffffffffffffffffffffffff1916827bffffffffffffffffffffffffffffffffffffffffffffffffffffffff1916148061065e575061065d8261107d565b5b9050919050565b606060008054610674906128d6565b80601f01602080910402602001604051908101604052809291908181526020018280546106a0906128d6565b80156106ed5780601f106106c2576101008083540402835291602001916106ed565b820191906000526020600020905b8154815290600101906020018083116106d057829003601f168201915b5050505050905090565b60006107028261115f565b6004600083815260200190815260200160002060009054906101000a900473ffffffffffffffffffffffffffffffffffffffff169050919050565b600061074882610c35565b90508073ffffffffffffffffffffffffffffffffffffffff168373ffffffffffffffffffffffffffffffffffffffff1614156107b9576040517f08c379a00000000000000000000000000000000000000000000000000000000081526004016107b09061297a565b60405180910390fd5b8073ffffffffffffffffffffffffffffffffffffffff166107d86111aa565b73ffffffffffffffffffffffffffffffffffffffff1614806108075750610806816108016111aa565b610f65565b5b610846576040517f08c379a000000000000000000000000000000000000000000000000000000000815260040161083d90612a0c565b60405180910390fd5b61085083836111b2565b505050565b600061085f610a3b565b9050600081600b546108719190612a5b565b90506000662386f26fc10000846108889190612a8f565b905060058411156108ce576040517f08c379a00000000000000000000000000000000000000000000000000000000081526004016108c590612b5b565b60405180910390fd5b600b5484846108dd9190612b7b565b111561091e576040517f08c379a000000000000000000000000000000000000000000000000000000000815260040161091590612c43565b60405180910390fd5b80341015610961576040517f08c379a000000000000000000000000000000000000000000000000000000000815260040161095890612cd5565b60405180910390fd5b60006001846109709190612b7b565b905060005b858110156109a55761099233828461098d9190612b7b565b61126b565b808061099d90612cf5565b915050610975565b505050505050565b600c80546109ba906128d6565b80601f01602080910402602001604051908101604052809291908181526020018280546109e6906128d6565b8015610a335780601f10610a0857610100808354040283529160200191610a33565b820191906000526020600020905b815481529060010190602001808311610a1657829003601f168201915b505050505081565b6000600880549050905090565b610a59610a536111aa565b82611289565b610a98576040517f08c379a0000000000000000000000000000000000000000000000000000000008152600401610a8f90612db0565b60405180910390fd5b610aa383838361131e565b505050565b6000610ab383610ce7565b8210610af4576040517f08c379a0000000000000000000000000000000000000000000000000000000008152600401610aeb90612e42565b60405180910390fd5b600660008473ffffffffffffffffffffffffffffffffffffffff1673ffffffffffffffffffffffffffffffffffffffff168152602001908152602001600020600083815260200190815260200160002054905092915050565b610b6883838360405180602001604052806000815250610e96565b505050565b6000610b77610a3b565b8210610bb8576040517f08c379a0000000000000000000000000000000000000000000000000000000008152600401610baf90612ed4565b60405180910390fd5b60088281548110610bcc57610bcb612ef4565b5b90600052602060002001549050919050565b610be6611585565b60004790503373ffffffffffffffffffffffffffffffffffffffff166108fc829081150290604051600060405180830381858888f19350505050158015610c31573d6000803e3d6000fd5b5050565b6000806002600084815260200190815260200160002060009054906101000a900473ffffffffffffffffffffffffffffffffffffffff169050600073ffffffffffffffffffffffffffffffffffffffff168173ffffffffffffffffffffffffffffffffffffffff161415610cde576040517f08c379a0000000000000000000000000000000000000000000000000000000008152600401610cd590612f6f565b60405180910390fd5b80915050919050565b60008073ffffffffffffffffffffffffffffffffffffffff168273ffffffffffffffffffffffffffffffffffffffff161415610d58576040517f08c379a0000000000000000000000000000000000000000000000000000000008152600401610d4f90613001565b60405180910390fd5b600360008373ffffffffffffffffffffffffffffffffffffffff1673ffffffffffffffffffffffffffffffffffffffff168152602001908152602001600020549050919050565b610da7611585565b610db16000611603565b565b662386f26fc1000081565b6000600a60009054906101000a900473ffffffffffffffffffffffffffffffffffffffff16905090565b600b5481565b606060018054610dfd906128d6565b80601f0160208091040260200160405190810160405280929190818152602001828054610e29906128d6565b8015610e765780601f10610e4b57610100808354040283529160200191610e76565b820191906000526020600020905b815481529060010190602001808311610e5957829003601f168201915b5050505050905090565b610e92610e8b6111aa565b83836116c9565b5050565b610ea7610ea16111aa565b83611289565b610ee6576040517f08c379a0000000000000000000000000000000000000000000000000000000008152600401610edd90612db0565b60405180910390fd5b610ef284848484611836565b50505050565b600581565b6060610f088261115f565b6000610f12611892565b90506000815111610f325760405180602001604052806000815250610f5d565b80610f3c846118a9565b604051602001610f4d92919061305d565b6040516020818303038152906040525b915050919050565b6000600560008473ffffffffffffffffffffffffffffffffffffffff1673ffffffffffffffffffffffffffffffffffffffff16815260200190815260200160002060008373ffffffffffffffffffffffffffffffffffffffff1673ffffffffffffffffffffffffffffffffffffffff16815260200190815260200160002060009054906101000a900460ff16905092915050565b611001611585565b600073ffffffffffffffffffffffffffffffffffffffff168173ffffffffffffffffffffffffffffffffffffffff161415611071576040517f08c379a0000000000000000000000000000000000000000000000000000000008152600401611068906130f3565b60405180910390fd5b61107a81611603565b50565b60007f80ac58cd000000000000000000000000000000000000000000000000000000007bffffffffffffffffffffffffffffffffffffffffffffffffffffffff1916827bffffffffffffffffffffffffffffffffffffffffffffffffffffffff1916148061114857507f5b5e139f000000000000000000000000000000000000000000000000000000007bffffffffffffffffffffffffffffffffffffffffffffffffffffffff1916827bffffffffffffffffffffffffffffffffffffffffffffffffffffffff1916145b80611158575061115782611a0a565b5b9050919050565b61116881611a74565b6111a7576040517f08c379a000000000000000000000000000000000000000000000000000000000815260040161119e90612f6f565b60405180910390fd5b50565b600033905090565b816004600083815260200190815260200160002060006101000a81548173ffffffffffffffffffffffffffffffffffffffff021916908373ffffffffffffffffffffffffffffffffffffffff160217905550808273ffffffffffffffffffffffffffffffffffffffff1661122583610c35565b73ffffffffffffffffffffffffffffffffffffffff167f8c5be1e5ebec7d5bd14f71427d1e84f3dd0314c0f7b2291e5b200ac8c7c3b92560405160405180910390a45050565b611285828260405180602001604052806000815250611ae0565b5050565b60008061129583610c35565b90508073ffffffffffffffffffffffffffffffffffffffff168473ffffffffffffffffffffffffffffffffffffffff1614806112d757506112d68185610f65565b5b8061131557508373ffffffffffffffffffffffffffffffffffffffff166112fd846106f7565b73ffffffffffffffffffffffffffffffffffffffff16145b91505092915050565b8273ffffffffffffffffffffffffffffffffffffffff1661133e82610c35565b73ffffffffffffffffffffffffffffffffffffffff1614611394576040517f08c379a000000000000000000000000000000000000000000000000000000000815260040161138b90613185565b60405180910390fd5b600073ffffffffffffffffffffffffffffffffffffffff168273ffffffffffffffffffffffffffffffffffffffff161415611404576040517f08c379a00000000000000000000000000000000000000000000000000000000081526004016113fb90613217565b60405180910390fd5b61140f838383611b3b565b61141a6000826111b2565b6001600360008573ffffffffffffffffffffffffffffffffffffffff1673ffffffffffffffffffffffffffffffffffffffff168152602001908152602001600020600082825461146a9190612a5b565b925050819055506001600360008473ffffffffffffffffffffffffffffffffffffffff1673ffffffffffffffffffffffffffffffffffffffff16815260200190815260200160002060008282546114c19190612b7b565b92505081905550816002600083815260200190815260200160002060006101000a81548173ffffffffffffffffffffffffffffffffffffffff021916908373ffffffffffffffffffffffffffffffffffffffff160217905550808273ffffffffffffffffffffffffffffffffffffffff168473ffffffffffffffffffffffffffffffffffffffff167fddf252ad1be2c89b69c2b068fc378daa952ba7f163c4a11628f55a4df523b3ef60405160405180910390a4611580838383611c4f565b505050565b61158d6111aa565b73ffffffffffffffffffffffffffffffffffffffff166115ab610dbe565b73ffffffffffffffffffffffffffffffffffffffff1614611601576040517f08c379a00000000000000000000000000000000000000000000000000000000081526004016115f890613283565b60405180910390fd5b565b6000600a60009054906101000a900473ffffffffffffffffffffffffffffffffffffffff16905081600a60006101000a81548173ffffffffffffffffffffffffffffffffffffffff021916908373ffffffffffffffffffffffffffffffffffffffff1602179055508173ffffffffffffffffffffffffffffffffffffffff168173ffffffffffffffffffffffffffffffffffffffff167f8be0079c531659141344cd1fd0a4f28419497f9722a3daafe3b4186f6b6457e060405160405180910390a35050565b8173ffffffffffffffffffffffffffffffffffffffff168373ffffffffffffffffffffffffffffffffffffffff161415611738576040517f08c379a000000000000000000000000000000000000000000000000000000000815260040161172f906132ef565b60405180910390fd5b80600560008573ffffffffffffffffffffffffffffffffffffffff1673ffffffffffffffffffffffffffffffffffffffff16815260200190815260200160002060008473ffffffffffffffffffffffffffffffffffffffff1673ffffffffffffffffffffffffffffffffffffffff16815260200190815260200160002060006101000a81548160ff0219169083151502179055508173ffffffffffffffffffffffffffffffffffffffff168373ffffffffffffffffffffffffffffffffffffffff167f17307eab39ab6107e8899845ad3d59bd9653f200f220920489ca2b5937696c31836040516118299190612398565b60405180910390a3505050565b61184184848461131e565b61184d84848484611c54565b61188c576040517f08c379a000000000000000000000000000000000000000000000000000000000815260040161188390613381565b60405180910390fd5b50505050565b606060405180602001604052806000815250905090565b606060008214156118f1576040518060400160405280600181526020017f30000000000000000000000000000000000000000000000000000000000000008152509050611a05565b600082905060005b6000821461192357808061190c90612cf5565b915050600a8261191c91906133d0565b91506118f9565b60008167ffffffffffffffff81111561193f5761193e6126b9565b5b6040519080825280601f01601f1916602001820160405280156119715781602001600182028036833780820191505090505b5090505b600085146119fe5760018261198a9190612a5b565b9150600a856119999190613401565b60306119a59190612b7b565b60f81b8183815181106119bb576119ba612ef4565b5b60200101907effffffffffffffffffffffffffffffffffffffffffffffffffffffffffffff1916908160001a905350600a856119f791906133d0565b9450611975565b8093505050505b919050565b60007f01ffc9a7000000000000000000000000000000000000000000000000000000007bffffffffffffffffffffffffffffffffffffffffffffffffffffffff1916827bffffffffffffffffffffffffffffffffffffffffffffffffffffffff1916149050919050565b60008073ffffffffffffffffffffffffffffffffffffffff166002600084815260200190815260200160002060009054906101000a900473ffffffffffffffffffffffffffffffffffffffff1673ffffffffffffffffffffffffffffffffffffffff1614159050919050565b611aea8383611ddc565b611af76000848484611c54565b611b36576040517f08c379a0000000000000000000000000000000000000000000000000000000008152600401611b2d90613381565b60405180910390fd5b505050565b611b46838383611fb6565b600073ffffffffffffffffffffffffffffffffffffffff168373ffffffffffffffffffffffffffffffffffffffff161415611b8957611b8481611fbb565b611bc8565b8173ffffffffffffffffffffffffffffffffffffffff168373ffffffffffffffffffffffffffffffffffffffff1614611bc757611bc68382612004565b5b5b600073ffffffffffffffffffffffffffffffffffffffff168273ffffffffffffffffffffffffffffffffffffffff161415611c0b57611c0681612171565b611c4a565b8273ffffffffffffffffffffffffffffffffffffffff168273ffffffffffffffffffffffffffffffffffffffff1614611c4957611c488282612242565b5b5b505050565b505050565b6000611c758473ffffffffffffffffffffffffffffffffffffffff166122c1565b15611dcf578373ffffffffffffffffffffffffffffffffffffffff1663150b7a02611c9e6111aa565b8786866040518563ffffffff1660e01b8152600401611cc09493929190613487565b6020604051808303816000875af1925050508015611cfc57506040513d601f19601f82011682018060405250810190611cf991906134e8565b60015b611d7f573d8060008114611d2c576040519150601f19603f3d011682016040523d82523d6000602084013e611d31565b606091505b50600081511415611d77576040517f08c379a0000000000000000000000000000000000000000000000000000000008152600401611d6e90613381565b60405180910390fd5b805181602001fd5b63150b7a0260e01b7bffffffffffffffffffffffffffffffffffffffffffffffffffffffff1916817bffffffffffffffffffffffffffffffffffffffffffffffffffffffff191614915050611dd4565b600190505b949350505050565b600073ffffffffffffffffffffffffffffffffffffffff168273ffffffffffffffffffffffffffffffffffffffff161415611e4c576040517f08c379a0000000000000000000000000000000000000000000000000000000008152600401611e4390613561565b60405180910390fd5b611e5581611a74565b15611e95576040517f08c379a0000000000000000000000000000000000000000000000000000000008152600401611e8c906135cd565b60405180910390fd5b611ea160008383611b3b565b6001600360008473ffffffffffffffffffffffffffffffffffffffff1673ffffffffffffffffffffffffffffffffffffffff1681526020019081526020016000206000828254611ef19190612b7b565b92505081905550816002600083815260200190815260200160002060006101000a81548173ffffffffffffffffffffffffffffffffffffffff021916908373ffffffffffffffffffffffffffffffffffffffff160217905550808273ffffffffffffffffffffffffffffffffffffffff16600073ffffffffffffffffffffffffffffffffffffffff167fddf252ad1be2c89b69c2b068fc378daa952ba7f163c4a11628f55a4df523b3ef60405160405180910390a4611fb260008383611c4f565b5050565b505050565b6008805490506009600083815260200190815260200160002081905550600881908060018154018082558091505060019003906000526020600020016000909190919091505550565b6000600161201184610ce7565b61201b9190612a5b565b9050600060076000848152602001908152602001600020549050818114612100576000600660008673ffffffffffffffffffffffffffffffffffffffff1673ffffffffffffffffffffffffffffffffffffffff168152602001908152602001600020600084815260200190815260200160002054905080600660008773ffffffffffffffffffffffffffffffffffffffff1673ffffffffffffffffffffffffffffffffffffffff168152602001908152602001600020600084815260200190815260200160002081905550816007600083815260200190815260200160002081905550505b6007600084815260200190815260200160002060009055600660008573ffffffffffffffffffffffffffffffffffffffff1673ffffffffffffffffffffffffffffffffffffffff16815260200190815260200160002060008381526020019081526020016000206000905550505050565b600060016008805490506121859190612a5b565b90506000600960008481526020019081526020016000205490506000600883815481106121b5576121b4612ef4565b5b9060005260206000200154905080600883815481106121d7576121d6612ef4565b5b906000526020600020018190555081600960008381526020019081526020016000208190555060096000858152602001908152602001600020600090556008805480612226576122256135ed565b5b6001900381819060005260206000200160009055905550505050565b600061224d83610ce7565b905081600660008573ffffffffffffffffffffffffffffffffffffffff1673ffffffffffffffffffffffffffffffffffffffff168152602001908152602001600020600083815260200190815260200160002081905550806007600084815260200190815260200160002081905550505050565b6000808273ffffffffffffffffffffffffffffffffffffffff163b119050919050565b6000604051905090565b600080fd5b600080fd5b60007fffffffff0000000000000000000000000000000000000000000000000000000082169050919050565b61232d816122f8565b811461233857600080fd5b50565b60008135905061234a81612324565b92915050565b600060208284031215612366576123656122ee565b5b60006123748482850161233b565b91505092915050565b60008115159050919050565b6123928161237d565b82525050565b60006020820190506123ad6000830184612389565b92915050565b600081519050919050565b600082825260208201905092915050565b60005b838110156123ed5780820151818401526020810190506123d2565b838111156123fc576000848401525b50505050565b6000601f19601f8301169050919050565b600061241e826123b3565b61242881856123be565b93506124388185602086016123cf565b61244181612402565b840191505092915050565b600060208201905081810360008301526124668184612413565b905092915050565b6000819050919050565b6124818161246e565b811461248c57600080fd5b50565b60008135905061249e81612478565b92915050565b6000602082840312156124ba576124b96122ee565b5b60006124c88482850161248f565b91505092915050565b600073ffffffffffffffffffffffffffffffffffffffff82169050919050565b60006124fc826124d1565b9050919050565b61250c816124f1565b82525050565b60006020820190506125276000830184612503565b92915050565b612536816124f1565b811461254157600080fd5b50565b6000813590506125538161252d565b92915050565b600080604083850312156125705761256f6122ee565b5b600061257e85828601612544565b925050602061258f8582860161248f565b9150509250929050565b6125a28161246e565b82525050565b60006020820190506125bd6000830184612599565b92915050565b6000806000606084860312156125dc576125db6122ee565b5b60006125ea86828701612544565b93505060206125fb86828701612544565b925050604061260c8682870161248f565b9150509250925092565b60006020828403121561262c5761262b6122ee565b5b600061263a84828501612544565b91505092915050565b61264c8161237d565b811461265757600080fd5b50565b60008135905061266981612643565b92915050565b60008060408385031215612686576126856122ee565b5b600061269485828601612544565b92505060206126a58582860161265a565b9150509250929050565b600080fd5b600080fd5b7f4e487b7100000000000000000000000000000000000000000000000000000000600052604160045260246000fd5b6126f182612402565b810181811067ffffffffffffffff821117156127105761270f6126b9565b5b80604052505050565b60006127236122e4565b905061272f82826126e8565b919050565b600067ffffffffffffffff82111561274f5761274e6126b9565b5b61275882612402565b9050602081019050919050565b82818337600083830152505050565b600061278761278284612734565b612719565b9050828152602081018484840111156127a3576127a26126b4565b5b6127ae848285612765565b509392505050565b600082601f8301126127cb576127ca6126af565b5b81356127db848260208601612774565b91505092915050565b600080600080608085870312156127fe576127fd6122ee565b5b600061280c87828801612544565b945050602061281d87828801612544565b935050604061282e8782880161248f565b925050606085013567ffffffffffffffff81111561284f5761284e6122f3565b5b61285b878288016127b6565b91505092959194509250565b6000806040838503121561287e5761287d6122ee565b5b600061288c85828601612544565b925050602061289d85828601612544565b9150509250929050565b7f4e487b7100000000000000000000000000000000000000000000000000000000600052602260045260246000fd5b600060028204905060018216806128ee57607f821691505b60208210811415612902576129016128a7565b5b50919050565b7f4552433732313a20617070726f76616c20746f2063757272656e74206f776e6560008201527f7200000000000000000000000000000000000000000000000000000000000000602082015250565b60006129646021836123be565b915061296f82612908565b604082019050919050565b6000602082019050818103600083015261299381612957565b9050919050565b7f4552433732313a20617070726f76652063616c6c6572206973206e6f7420746f60008201527f6b656e206f776e6572206e6f7220617070726f76656420666f7220616c6c0000602082015250565b60006129f6603e836123be565b9150612a018261299a565b604082019050919050565b60006020820190508181036000830152612a25816129e9565b9050919050565b7f4e487b7100000000000000000000000000000000000000000000000000000000600052601160045260246000fd5b6000612a668261246e565b9150612a718361246e565b925082821015612a8457612a83612a2c565b5b828203905092915050565b6000612a9a8261246e565b9150612aa58361246e565b9250817fffffffffffffffffffffffffffffffffffffffffffffffffffffffffffffffff0483118215151615612ade57612add612a2c565b5b828202905092915050565b7f596f752063616e206f6e6c79206d696e7420757020746f2035204e465473206960008201527f6e20612073696e676c65207472616e73616374696f6e00000000000000000000602082015250565b6000612b456036836123be565b9150612b5082612ae9565b604082019050919050565b60006020820190508181036000830152612b7481612b38565b9050919050565b6000612b868261246e565b9150612b918361246e565b9250827fffffffffffffffffffffffffffffffffffffffffffffffffffffffffffffffff03821115612bc657612bc5612a2c565b5b828201905092915050565b7f536f6c64206f7574212043616e2774206d696e74206d6f7265207468616e206d60008201527f617820737570706c790000000000000000000000000000000000000000000000602082015250565b6000612c2d6029836123be565b9150612c3882612bd1565b604082019050919050565b60006020820190508181036000830152612c5c81612c20565b9050919050565b7f4e656564206174206c6561737420302e30312a6e756d6265724f66546f6b656e60008201527f7320657468657200000000000000000000000000000000000000000000000000602082015250565b6000612cbf6027836123be565b9150612cca82612c63565b604082019050919050565b60006020820190508181036000830152612cee81612cb2565b9050919050565b6000612d008261246e565b91507fffffffffffffffffffffffffffffffffffffffffffffffffffffffffffffffff821415612d3357612d32612a2c565b5b600182019050919050565b7f4552433732313a2063616c6c6572206973206e6f7420746f6b656e206f776e6560008201527f72206e6f7220617070726f766564000000000000000000000000000000000000602082015250565b6000612d9a602e836123be565b9150612da582612d3e565b604082019050919050565b60006020820190508181036000830152612dc981612d8d565b9050919050565b7f455243373231456e756d657261626c653a206f776e657220696e646578206f7560008201527f74206f6620626f756e6473000000000000000000000000000000000000000000602082015250565b6000612e2c602b836123be565b9150612e3782612dd0565b604082019050919050565b60006020820190508181036000830152612e5b81612e1f565b9050919050565b7f455243373231456e756d657261626c653a20676c6f62616c20696e646578206f60008201527f7574206f6620626f756e64730000000000000000000000000000000000000000602082015250565b6000612ebe602c836123be565b9150612ec982612e62565b604082019050919050565b60006020820190508181036000830152612eed81612eb1565b9050919050565b7f4e487b7100000000000000000000000000000000000000000000000000000000600052603260045260246000fd5b7f4552433732313a20696e76616c696420746f6b656e2049440000000000000000600082015250565b6000612f596018836123be565b9150612f6482612f23565b602082019050919050565b60006020820190508181036000830152612f8881612f4c565b9050919050565b7f4552433732313a2061646472657373207a65726f206973206e6f74206120766160008201527f6c6964206f776e65720000000000000000000000000000000000000000000000602082015250565b6000612feb6029836123be565b9150612ff682612f8f565b604082019050919050565b6000602082019050818103600083015261301a81612fde565b9050919050565b600081905092915050565b6000613037826123b3565b6130418185613021565b93506130518185602086016123cf565b80840191505092915050565b6000613069828561302c565b9150613075828461302c565b91508190509392505050565b7f4f776e61626c653a206e6577206f776e657220697320746865207a65726f206160008201527f6464726573730000000000000000000000000000000000000000000000000000602082015250565b60006130dd6026836123be565b91506130e882613081565b604082019050919050565b6000602082019050818103600083015261310c816130d0565b9050919050565b7f4552433732313a207472616e736665722066726f6d20696e636f72726563742060008201527f6f776e6572000000000000000000000000000000000000000000000000000000602082015250565b600061316f6025836123be565b915061317a82613113565b604082019050919050565b6000602082019050818103600083015261319e81613162565b9050919050565b7f4552433732313a207472616e7366657220746f20746865207a65726f2061646460008201527f7265737300000000000000000000000000000000000000000000000000000000602082015250565b60006132016024836123be565b915061320c826131a5565b604082019050919050565b60006020820190508181036000830152613230816131f4565b9050919050565b7f4f776e61626c653a2063616c6c6572206973206e6f7420746865206f776e6572600082015250565b600061326d6020836123be565b915061327882613237565b602082019050919050565b6000602082019050818103600083015261329c81613260565b9050919050565b7f4552433732313a20617070726f766520746f2063616c6c657200000000000000600082015250565b60006132d96019836123be565b91506132e4826132a3565b602082019050919050565b60006020820190508181036000830152613308816132cc565b9050919050565b7f4552433732313a207472616e7366657220746f206e6f6e20455243373231526560008201527f63656976657220696d706c656d656e7465720000000000000000000000000000602082015250565b600061336b6032836123be565b91506133768261330f565b604082019050919050565b6000602082019050818103600083015261339a8161335e565b9050919050565b7f4e487b7100000000000000000000000000000000000000000000000000000000600052601260045260246000fd5b60006133db8261246e565b91506133e68361246e565b9250826133f6576133f56133a1565b5b828204905092915050565b600061340c8261246e565b91506134178361246e565b925082613427576134266133a1565b5b828206905092915050565b600081519050919050565b600082825260208201905092915050565b600061345982613432565b613463818561343d565b93506134738185602086016123cf565b61347c81612402565b840191505092915050565b600060808201905061349c6000830187612503565b6134a96020830186612503565b6134b66040830185612599565b81810360608301526134c8818461344e565b905095945050505050565b6000815190506134e281612324565b92915050565b6000602082840312156134fe576134fd6122ee565b5b600061350c848285016134d3565b91505092915050565b7f4552433732313a206d696e7420746f20746865207a65726f2061646472657373600082015250565b600061354b6020836123be565b915061355682613515565b602082019050919050565b6000602082019050818103600083015261357a8161353e565b9050919050565b7f4552433732313a20746f6b656e20616c7265616479206d696e74656400000000600082015250565b60006135b7601c836123be565b91506135c282613581565b602082019050919050565b600060208201905081810360008301526135e6816135aa565b9050919050565b7f4e487b7100000000000000000000000000000000000000000000000000000000600052603160045260246000fdfea2646970667358221220c9cc7cc1c7e640ea8a3fe1cc06a186b22e5389599df3995de7fd9fb93edef54364736f6c634300080a0033697066733a2f2f516d65575046624a6f785973365554775a636866373666384d4653677464455a527052725932747847434e365341",
  "linkReferences": {},
  "deployedLinkReferences": {}
}